:100000000C94D5000C94FD000C94FD000C94FD00A4
:100010000C94FD000C94FD000C94FD000C94FD006C
:100020000C94FD000C94FD000C945D040C94CC0425
:100030000C94FD000C94FD000C94FD000C94FD004C
:100040000C94FD000C94FD000C94FD000C94FD003C
:100050000C94FD000C94FD000C94FD000C94FE0625
:100060000C94FD000C94FD000C94FD000C94FD001C
:100070000C94FD000C94FD000C94FD000C94FD000C
:100080000C94FD000C94FD000C94FD000C94FD00FC
:100090000C94FD000C94FD000C94FD000C94FD00EC
:1000A0000C94FD000C94FD000C94FD000000000079
:1000B000240027002A002D00300000000000250049
:1000C00028002B002E003100000000002300260035
:1000D00029002C002F000404040404030405020278
:1000E00002020403020202020606060606060404D1
:1000F0000202020404040802011040804010204063
:10010000804080080204018040201002011080100D
:10011000204040200000000200090F0000030401FD
:10012000000C0000000000000000000000000000C3
:10013000000000080B000202020000090400000198
:10014000020200000524001001052401010104241D
:10015000020605240600010705810310004009047A
:100160000100020A00000007050202400000070526
:1001700083024000000403090412010002EF02019F
:100180004041233680000101020301417264756918
:100190006E6F204C4C430041726475696E6F204C49
:1001A000656F6E6172646F00480711241FBECFEF48
:1001B000DAE0DEBFCDBF11E0A0E0B1E0E2E2F2E1C3
:1001C00002C005900D92A632B107D9F721E0A6E250
:1001D000B1E001C01D92A639B207E1F710E0C5ED0C
:1001E000D0E004C02197FE010E940909C43DD10757
:1001F000C9F70E945D070C940F090C940000FC01E4
:1002000080919501882311F13FB7F89482E08093A3
:10021000E9002091F200822F90E01816190614F4DC
:1002200081E090E0882339F0289844E640939401D7
:100230004091F1004083222339F02091F2002111F6
:1002400003C02BE62093E8003FBF08958FEF9FEF98
:1002500008952FB7F89483E08093E9009091E80027
:10026000892F807295FF04C09091F20080E4891B71
:100270002FBF089580918C0181110DC082E0809381
:10028000880184E08093890110928B0110928A0189
:1002900081E080938C0188E891E00895CF93DF930B
:1002A0001F92CDB7DEB76983DC01ED91FC9102802E
:1002B000F381E02D41E050E0BE016F5F7F4F099573
:1002C0000F90DF91CF91089583E08093E9008091B2
:1002D000F200882319F08AE38093E80008950E94D1
:1002E000290190E00895CF93DF931F92CDB7DEB739
:1002F000FC018485958597FD08C02FEF3FEF35877A
:1003000024870F90DF91CF910895CE0101960E942E
:10031000FF00019719F4898190E0F3CF8FEF9FEFF1
:10032000F0CF0F931F93CF93DF931F92CDB7DEB71C
:100330008C01FC018485958597FF0BC0CE01019649
:100340000E94FF00019771F4898190E0F801958780
:100350008487F801848595850F90DF91CF911F9157
:100360000F9108958FEF9FEFF1CFFC018485958564
:1003700097FD0BC09FB7F89482E08093E9008091CD
:10038000F2009FBF90E0019608959FB7F89482E035
:100390008093E9008091F2009FBF90E00895409122
:1003A00032015091330120913001309131014217D7
:1003B0005307B4F49091E8009570E1F39091E80050
:1003C00092FD19C08093F100809132019091330128
:1003D00001968F739927892B19F48EEF8093E8008B
:1003E0008091320190913301019690933301809373
:1003F000320181E0089580E00895EF92FF920F931B
:100400001F93CF93DF93F82E192FE62E042F81E050
:10041000860F880F0E94CF0183E00E94CF01CF2D6D
:10042000D12FEC0EFD2EF11CCE15DF05B9F007FF24
:1004300013C0FE0184910E94CF01182F80E00E941A
:10044000CF01812321968111EFCFDF91CF911F91B1
:100450000F91FF90EF9008958881EDCF81E0F5CF67
:10046000DF92EF92FF920F931F93CF93DF93D82EDB
:100470008A01EB017B01E40EF51ECE15DF0559F074
:10048000D7FE12C0FE0184910E94CF0121968111F6
:10049000F4CF0FEF1FEFC801DF91CF911F910F91A4
:1004A000FF90EF90DF9008958881EECF0F931F9318
:1004B000CF93DF931F92CDB7DEB782E0898342E40A
:1004C00050E063E371E080E80E9430020E943A014C
:1004D000DC0112960D911C910115110589F0D801CE
:1004E000ED91FC910280F381E02DBE016F5F7F4FA3
:1004F000C801099597FD04C0F80100851185ECCF6E
:1005000089810F90DF91CF911F910F9108956150D4
:1005100030F02091F100FC0120830196F8CF28985B
:1005200084E680939401089581508F3008F047C08D
:10053000E82FF0E0E256FD4F0C940909BB02BF0220
:10054000AD02B302B702DF02DF02DF02C202C8025D
:10055000CC02D002D602DF02DA02809180008F77CF
:10056000809380000895809180008F7DF9CF8091E5
:100570008000877FF5CF84B58F7784BD089584B5DB
:100580008F7DFBCF809190008F77809390000895AE
:10059000809190008F7DF9CF80919000877FF5CF7B
:1005A0008091C0008F778093C00008958091C00033
:1005B0008F7DF9CF8091C200877F8093C20008951C
:1005C000CF93DF93282F30E0F901EC5EFE4F84914A
:1005D000F901EB50FF4FD491F901EA52FF4FC4915A
:1005E000CC23A1F081110E949402EC2FF0E0EE0FD9
:1005F000FF1FE853FF4FA591B491EC91ED2381E0EB
:1006000090E009F480E0DF91CF91089580E090E0E0
:10061000FACF1F93CF93DF93282F30E0F901EC5EE0
:10062000FE4F8491F901EB50FF4FD491F901EA524A
:10063000FF4FC491CC23A9F0162F81110E94940280
:10064000EC2FF0E0EE0FFF1FE654FF4FA591B491A1
:100650008FB7F894EC91111108C0D095DE23DC938C
:100660008FBFDF91CF911F910895DE2BF8CFCF93ED
:10067000DF9390E0FC01EB50FF4F24918A529F4F93
:10068000FC0184918823C9F090E0880F991FFC0138
:10069000E455FF4FA591B491FC01E654FF4FC5917D
:1006A000D49161110DC09FB7F8948C91209582234D
:1006B0008C938881282328839FBFDF91CF91089551
:1006C000623051F49FB7F8943C91822F8095832338
:1006D0008C93E8812E2BEFCF8FB7F894EC912E2BD3
:1006E0002C938FBFEACF3FB7F89480912C01909163
:1006F0002D01A0912E01B0912F0126B5A89B05C018
:100700002F3F19F00196A11DB11D3FBFBA2FA92F90
:10071000982F8827BC01CD01620F711D811D911D8D
:1007200042E0660F771F881F991F4A95D1F70895F9
:100730008F929F92AF92BF92CF92DF92EF92FF92F1
:100740004B015C010E9473036B017C010E947303E7
:100750006C197D098E099F09683E734081059105DA
:10076000A8F321E0821A9108A108B10888EEC80E0A
:1007700083E0D81EE11CF11C81149104A104B10492
:1007800029F7FF90EF90DF90CF90BF90AF909F90B0
:100790008F9008958F929F92AF92BF92CF92DF92E7
:1007A000EF92FF920F931F93CF93DF936C017B0126
:1007B0008A0180910C01882309F45CC08091950125
:1007C000882309F457C08091370180FF05C08091CC
:1007D000E00082608093E000E801B12C8AEFA82E4F
:1007E00093E0892E2AE3922E209711F4BB20D9F1B1
:1007F0000E94290181110AC0AA94AA20D9F161E0BE
:1008000070E080E090E00E949803EECF8C171D0608
:1008100011F00CF08C2F9FB7F8948092E900209192
:10082000E80025FD02C09FBFDFCF282F30E0C21BAC
:10083000D30BF701815020F041914093F100FACFA2
:10084000E20EF31EBB2021F09092E800B12CEBCF1A
:100850008091E80085FDE7CF9092E800BB24B39437
:10086000209709F3F3CF5D9884E680933601101644
:1008700011063CF081E090E0F6019383828310E062
:1008800000E0C801DF91CF911F910F91FF90EF9091
:10089000DF90CF90BF90AF909F908F90089561E0D0
:1008A00086E00E94090368E97AE380E090E00E9414
:1008B000980360E086E00C9409031F920F920FB634
:1008C0000F9211248F939F938091E1009091E1000A
:1008D000937F9093E10083FF0FC01092E90091E0B5
:1008E0009093EB001092EC0092E39093ED00109245
:1008F000950198E09093F00082FF22C093E09093DE
:10090000E9009091F200992319F09AE39093E8009E
:1009100090913601992341F0909136019150909336
:100920003601911101C05D9A90919401992341F093
:1009300090919401915090939401911101C0289A43
:1009400084FF18C08091E2008E7E81608093E20077
:100950008091E1008F7E8093E100809137018E7E4F
:100960008061809337019F918F910F900FBE0F9000
:100970001F90189580FFF7CF8091E2008E7E8061F6
:100980008093E2008091E1008E7E8093E10080916F
:1009900037018E7E8160E5CF1F920F920FB60F92C6
:1009A0001124CF92DF92EF92FF920F931F932F9318
:1009B0003F934F935F936F937F938F939F93AF93E7
:1009C000BF93EF93FF93CF93DF93CDB7DEB76C97D1
:1009D000DEBFCDBF1092E9008091E80083FF25C003
:1009E00068E0CE0145960E94870282EF8093E8007E
:1009F0008D8987FF39C09091E80090FFFCCF982F38
:100A0000907609F034C19E894F89588D2F89F88CD2
:100A1000911131C0803861F5809135018093F100EA
:100A20001092F1008EEF8093E8006C960FB6F89468
:100A3000DEBF0FBECDBFDF91CF91FF91EF91BF9190
:100A4000AF919F918F917F916F915F914F913F9166
:100A50002F911F910F91FF90EF90DF90CF900F900B
:100A60000FBE0F901F9018959EEF9093E800C7CF90
:100A70001092F100D5CF913059F48111D3CF41308C
:100A8000510581F6809135018D7F80933501CACF64
:100A9000933049F48111C6CF4130510519F6809148
:100AA00035018260F2CF953041F48091E80080FFFB
:100AB000FCCF20682093E300B5CF963009F0A9C0A1
:100AC0000B8D1C8D22E01092E900109233011092E0
:100AD0003201F2122EC010923101109230010E94A8
:100AE00056021F8299E09983FA8291E09E8390EAF0
:100AF00098879AEF99872091320130913301275FCF
:100B00003F4F3C832B838D831092E9001092330179
:100B100010923201109331010093300149E050E00E
:100B2000BE016F5F7F4F80E00E9430020E9456023C
:100B300079CF10933101009330010E943A01DC011A
:100B400012960D911C910115110509F451C1D8019E
:100B5000ED91FC910480F581E02DBE016B5E7F4F2D
:100B6000C8010995009709F03EC1F801008511857B
:100B7000EACFF3E0FF120EC08F89882309F440C04A
:100B8000823061F440E860E187E991E00E94FD0174
:100B9000811148CF81E28093EB0047CF813029F467
:100BA00040E86BE08BE891E0F1CF833099F70E9449
:100BB0003A01DC011296ED90FC908E010F5F1F4F01
:100BC0006801E114F10479F0D701ED91FC91068000
:100BD000F781E02DB801C7010995080F111DF70134
:100BE000E084F184EECFD8011C92F6010190002040
:100BF000E9F73197BF016C197D0940E0C601C6CF06
:100C000065E771E0FB01449150E080E80E9430020A
:100C100009CF973009F4BECF983021F481E080935A
:100C2000F10000CF993009F0FDCE837009F0B2CF0A
:100C3000EEE0F1E081E031E096E32191222371F0D2
:100C40008093E9003093EB00DF0111972C91209302
:100C5000EC009093ED008F5F873079F78EE78093FB
:100C6000EA001092EA008F8980939501DBCE8B8D8C
:100C70009C8D1092E90010923301109232019093F2
:100C8000310180933001898D811192C08E899D89B7
:100C9000913A49F4813209F07DCF47E050E065E0B8
:100CA00071E080E0B3CF913209F074CF833269F400
:100CB0008F89988DB0E0A0E08093010190930201AC
:100CC000A0930301B0930401ADCE803269F480910A
:100CD000E80082FFFCCF67E085E091E00E94870298
:100CE0008BEF8093E8009ECE823209F09BCE8F89F5
:100CF00080930C01EEEFFFE7859194918B3F9C4D23
:100D000051F1E0E0F8E08091050190910601A09199
:100D10000701B0910801803B9440A105B105F1F4B1
:100D200080910C0180FD1AC0EE3F8AE0F80789F53A
:100D300087E797E7918380838091600080933401F7
:100D400088E19BE00FB6F894A895809360000FBEF1
:100D50009093600067CEEEEFFAE0D5CF808191816D
:100D60008737974709F05ECEA8958091600088612B
:100D7000809360008091340180936000EE3F2AE010
:100D8000F20789F08091FE0A9091FF0A9183808397
:100D900049CE808191818737980751F29093FF0A5D
:100DA0008093FE0AC5CF1092FF0A1092FE0A3ACE37
:100DB0000E943A01DC0112960D911C91011511055A
:100DC00009F4E8CED801ED91FC910190F081E02D7D
:100DD000BE016B5E7F4FC8010995811123CEF801DA
:100DE00000851185EBCF181619060CF41BCED2CE58
:100DF000F1E0FF12BECE69E771E004CF1F920F92BF
:100E00000FB60F9211242F933F938F939F93AF931D
:100E1000BF938091280190912901A0912A01B0915E
:100E20002B013091270123E0230F2D3758F5019630
:100E3000A11DB11D209327018093280190932901C2
:100E4000A0932A01B0932B0180912C0190912D0148
:100E5000A0912E01B0912F010196A11DB11D80938B
:100E60002C0190932D01A0932E01B0932F01BF91DF
:100E7000AF919F918F913F912F910F900FBE0F9047
:100E80001F90189526E8230F0296A11DB11DD2CF01
:100E9000E8E3F1E01382128288EE93E0A0E0B0E094
:100EA00084839583A683B78388E191E091838083CF
:100EB0008FEF9FEF958784870895789484B582603B
:100EC00084BD84B5816084BD85B5826085BD85B5EE
:100ED000816085BD80916E00816080936E0010926C
:100EE00081008091810082608093810080918100E7
:100EF0008160809381008091800081608093800078
:100F00008091910082608093910080919100816036
:100F100080939100809190008160809390008091F7
:100F2000C10084608093C1008091C1008260809381
:100F3000C1008091C10081608093C1008091C30095
:100F400081608093C3008091C00082608093C00064
:100F50008091C20081608093C20080917A00846099
:100F600080937A0080917A00826080937A008091E9
:100F70007A00816080937A0080917A008068809303
:100F80007A001092950110923501109237018091EC
:100F9000D70081608093D70080EA8093D80089B51C
:100FA000806189BD89B5826089BD09B400FEFDCF2D
:100FB00061E070E080E090E00E9498038091D800AA
:100FC0008F7C80618093D8008091E000807F809347
:100FD000E0008091E1008E7E8093E1008DE08093BF
:100FE000E200559A209A62E082E00E94370362E0B4
:100FF00083E00E94370360E084E00E94370362E0F0
:1010000085E00E94370361E086E00E94370361E0DB
:1010100087E00E94370361E088E00E94370361E0C7
:1010200089E00E94370362E08AE00E94370362E0B1
:101030008EE00E94370362E08FE00E94370362E097
:1010400080E10E94370362E082E10E943703C0E042
:10105000D0E08AE00E94E002019709F098C08EE09B
:101060000E94E002892B21F461E086E00E940903DE
:101070008EE00E94E002019721F460E086E00E9489
:1010800009038FE00E94E002892B21F461E087E0F0
:101090000E9409038FE00E94E002019721F460E0C2
:1010A00087E00E94090380E10E94E002892B21F47D
:1010B00061E088E00E94090380E10E94E00201975C
:1010C00021F460E088E00E94090382E10E94E002CE
:1010D000892B21F461E089E00E94090382E10E94EA
:1010E000E002019709F0B5CF60E089E00E940903B2
:1010F000B0CF84E00E94E0020197A9F560E087E0AC
:101100000E9409031092000181E0809326018091E2
:1011100026018823E1F183E00E94E002892BB9F5E2
:101120006AEF70E080E090E00E94980383E00E9404
:10113000E002019761F50E944F0461E089E00E949E
:1011400009036CE47DE180E090E00E94980360E098
:1011500089E00E94090385E00E94E002019749F4BA
:1011600061E087E0F6CF8AE00E94E0020197D9F5BE
:10117000C5CF85E00E94E002892BF1F560E087E0B1
:101180000E94090381E080930001109226018AE009
:101190000E94E002892BB9F580910001882309F4AF
:1011A000B6CF82E00E94E002892B09F0B0CF6AEF4F
:1011B00070E080E090E00E94980382E00E94E002EC
:1011C000019709F0A4CF0E944F0461E088E00E94DB
:1011D00009036CE47DE180E090E00E94980360E008
:1011E00088E00E94090384E00E94E002892B09F054
:1011F00080CF61E087E0F5CF8AE00E94E0020197AE
:1012000009F0A9CFBBCF209709F423CF0E9400009B
:1012100020CFEE0FFF1F0590F491E02D0994F89474
:02122000FFCFFE
:1012220001FFFFFFFF00E100000000000000C1809D
:1012320081000000000000004E01CA036F0164013A
:06124200B50173019101EA
:00000001FF
