:020000040000FA
:100000000C9461000C947E000C947E000C947E0095
:100010000C947E000C947E000C947E000C947E0068
:100020000C947E000C947E000C947E000C947E0058
:100030000C947E000C947E000C947E000C947E0048
:100040000C94A1010C947E000C947E000C947E0014
:100050000C947E000C947E000C947E000C947E0028
:100060000C947E000C947E00000000002400270009
:100070002A0000000000250028002B0000000000DE
:1000800023002600290004040404040404040202DA
:100090000202020203030303030301020408102007
:1000A0004080010204081020010204081020000012
:1000B0000008000201000003040700000000000027
:1000C000000011241FBECFEFD8E0DEBFCDBF11E08E
:1000D000A0E0B1E0ECE8F6E002C005900D92A2309D
:1000E000B107D9F721E0A2E0B1E001C01D92AC3028
:1000F000B207E1F70E94EB010C9444030C9400005A
:10010000833081F028F4813099F08230A9F008958D
:100110008730A9F08830C9F08430B1F48091800034
:100120008F7D03C0809180008F7780938000089539
:1001300084B58F7784BD089584B58F7DFBCF809182
:10014000B0008F778093B00008958091B0008F7DCC
:10015000F9CFCF93DF93282F30E0F901E255FF4F1D
:100160008491F901E656FF4FD491F901EA57FF4F08
:10017000C491CC23A1F081110E948000EC2FF0E00B
:10018000EE0FFF1FE458FF4FA591B491EC91ED23C2
:1001900081E090E009F480E0DF91CF91089580E064
:1001A00090E0FACF1F93CF93DF93282F30E0F9012F
:1001B000E255FF4F8491F901E656FF4FD491F901C2
:1001C000EA57FF4FC491CC23A9F0162F81110E944A
:1001D0008000EC2FF0E0EE0FFF1FEE58FF4FA591CF
:1001E000B4918FB7F894EC91111108C0D095DE232B
:1001F000DC938FBFDF91CF911F910895DE2BF8CF55
:10020000CF93DF9390E0FC01E656FF4F24918A578D
:100210009F4FFC0184918823C9F090E0880F991FBB
:10022000FC01E859FF4FA591B491FC01EE58FF4F36
:10023000C591D49161110DC09FB7F8948C91209510
:1002400082238C938881282328839FBFDF91CF91BD
:100250000895623051F49FB7F8943C91822F8095B5
:1002600083238C93E8812E2BEFCF8FB7F894EC91FA
:100270002E2B2C938FBFEACF3FB7F89480910801C3
:1002800090910901A0910A01B0910B0126B5A89B9C
:1002900005C02F3F19F00196A11DB11D3FBFBA2F18
:1002A000A92F982F8827BC01CD01620F711D811DD8
:1002B000911D42E0660F771F881F991F4A95D1F75D
:1002C00008958F929F92AF92BF92CF92DF92EF925A
:1002D000FF924B015C010E943C016B017C010E947A
:1002E0003C016C197D098E099F09683E73408105A8
:1002F0009105A8F321E0821A9108A108B10888EEBF
:10030000C80E83E0D81EE11CF11C81149104A104E5
:10031000B10429F7FF90EF90DF90CF90BF90AF909E
:100320009F908F90089561E086E00E94D20068E976
:100330007AE380E090E00E94610160E086E00C9446
:10034000D2001F920F920FB60F9211242F933F935A
:100350008F939F93AF93BF93809104019091050178
:10036000A0910601B09107013091030123E0230F12
:100370002D3758F50196A11DB11D209303018093DF
:10038000040190930501A0930601B09307018091A9
:10039000080190910901A0910A01B0910B01019609
:1003A000A11DB11D8093080190930901A0930A013A
:1003B000B0930B01BF91AF919F918F913F912F917E
:1003C0000F900FBE0F901F90189526E8230F0296EE
:1003D000A11DB11DD2CF789484B5826084BD84B54F
:1003E000816084BD85B5826085BD85B5816085BD30
:1003F00080916E00816080936E00109281008091E8
:10040000810082608093810080918100816080936F
:100410008100809180008160809380008091B10094
:1004200084608093B1008091B00081608093B000BF
:1004300080917A00846080937A0080917A00826053
:1004400080937A0080917A00816080937A00809115
:100450007A00806880937A001092C10062E082E0A6
:100460000E94000162E083E00E94000160E084E0FD
:100470000E94000162E085E00E94000161E086E0E8
:100480000E94000161E087E00E94000161E088E0D5
:100490000E94000161E089E00E94000162E08AE0C0
:1004A0000E94000162E08BE00E94000162E08CE0AB
:1004B0000E94000162E08DE00E94000162E08EE097
:1004C0000E940001C0E0D0E08AE00E94A9000197EC
:1004D00009F098C08BE00E94A900892B21F461E00B
:1004E00086E00E94D2008BE00E94A900019721F4CF
:1004F00060E086E00E94D2008CE00E94A900892B77
:1005000021F461E087E00E94D2008CE00E94A90003
:10051000019721F460E087E00E94D2008DE00E9404
:10052000A900892B21F461E088E00E94D2008DE0CF
:100530000E94A900019721F460E088E00E94D200A7
:100540008EE00E94A900892B21F461E089E00E94DD
:10055000D2008EE00E94A900019709F0B5CF60E0BB
:1005600089E00E94D200B0CF84E00E94A9000197E8
:10057000A9F560E087E00E94D2001092000181E0BE
:1005800080930201809102018823E1F183E00E94BF
:10059000A900892BB9F56AEF70E080E090E00E9435
:1005A000610183E00E94A900019761F50E94930117
:1005B00061E089E00E94D2006CE47DE180E090E09F
:1005C0000E94610160E089E00E94D20085E00E9403
:1005D000A900019749F461E087E0F6CF8AE00E9424
:1005E000A9000197D9F5C5CF85E00E94A900892B04
:1005F000F1F560E087E00E94D20081E08093000185
:10060000109202018AE00E94A900892BB9F580911D
:100610000001882309F4B6CF82E00E94A900892B4B
:1006200009F0B0CF6AEF70E080E090E00E946101D5
:1006300082E00E94A900019709F0A4CF0E949301D3
:1006400061E088E00E94D2006CE47DE180E090E00F
:100650000E94610160E088E00E94D20084E00E9474
:10066000A900892B09F080CF61E087E0F5CF8AE00F
:100670000E94A900019709F0A9CFBBCF209709F4E8
:0E06800023CF0E94000020CFF894FFCF01008E
:107E0000112484B714BE81FFF0D085E080938100F7
:107E100082E08093C00088E18093C10086E0809377
:107E2000C20080E18093C4008EE0C9D0259A86E02C
:107E300020E33CEF91E0309385002093840096BBD3
:107E4000B09BFECF1D9AA8958150A9F7CC24DD24C4
:107E500088248394B5E0AB2EA1E19A2EF3E0BF2EE7
:107E6000A2D0813461F49FD0082FAFD0023811F036
:107E7000013811F484E001C083E08DD089C08234E0
:107E800011F484E103C0853419F485E0A6D080C0E4
:107E9000853579F488D0E82EFF2485D0082F10E0AE
:107EA000102F00270E291F29000F111F8ED06801E7
:107EB0006FC0863521F484E090D080E0DECF843638
:107EC00009F040C070D06FD0082F6DD080E0C81688
:107ED00080E7D80618F4F601B7BEE895C0E0D1E017
:107EE00062D089930C17E1F7F0E0CF16F0E7DF06D8
:107EF00018F0F601B7BEE89568D007B600FCFDCFD4
:107F0000A601A0E0B1E02C9130E011968C91119780
:107F100090E0982F8827822B932B1296FA010C0160
:107F200087BEE89511244E5F5F4FF1E0A038BF0790
:107F300051F7F601A7BEE89507B600FCFDCF97BE46
:107F4000E89526C08437B1F42ED02DD0F82E2BD052
:107F50003CD0F601EF2C8F010F5F1F4F84911BD097
:107F6000EA94F801C1F70894C11CD11CFA94CF0C13
:107F7000D11C0EC0853739F428D08EE10CD085E9AC
:107F80000AD08FE07ACF813511F488E018D01DD067
:107F900080E101D065CF982F8091C00085FFFCCF94
:107FA0009093C60008958091C00087FFFCCF809118
:107FB000C00084FD01C0A8958091C6000895E0E648
:107FC000F0E098E1908380830895EDDF803219F02E
:107FD00088E0F5DFFFCF84E1DECF1F93182FE3DFCA
:107FE0001150E9F7F2DF1F91089580E0E8DFEE27F6
:047FF000FF270994CA
:027FFE00040479
:00000001FF
